:100000000C9434000C9451000C9451000C94510049
:100010000C9451000C9451000C9451000C9451001C
:100020000C9451000C9451000C9451000C9451000C
:100030000C9451000C9451000C9451000C945100FC
:100040000C9451000C9451000C9451000C945100EC
:100050000C9451000C9451000C9451000C945100DC
:100060000C9451000C94510011241FBECFEFD8E026
:10007000DEBFCDBF11E0A0E0B1E0ECEDF3E002C0E7
:1000800005900D92A033B107D9F721E0A0E3B1E0CC
:1000900001C01D92A233B207E1F70E94BC010C948B
:1000A000EC010C9400008FE084B980EF85B90895CD
:1000B00090EF95B983B1807F80933001803FC9F77D
:1000C00087E893E10197F1F700C0000083B1807FDA
:1000D00080933001803FA1F387E893E10197F1F726
:1000E00000C0000083B1807F80933001803F41F3E6
:1000F0008EEF85B983B1807F80933001803F61F4BA
:1001000091E02EEF822F891B85B983B1807F809388
:100110003001803F89F001C090E0909331018091DF
:100120003001803B21F118F4803761F136C0803D09
:1001300099F0803E31F031C09F5F943019F78FEF16
:100140000895E0913101F0E0EE0FFF1FEE0FFF1F69
:10015000E050FF4F83810895E0913101F0E0EE0F10
:10016000FF1FEE0FFF1FE050FF4F82810895E091C7
:100170003101F0E0EE0FFF1FEE0FFF1FE050FF4FC9
:1001800081810895E0913101F0E0EE0FFF1FEE0F45
:10019000FF1FE050FF4F808108958FEF0895982F43
:1001A000907F9BB940984198429A92E49A95F1F7D2
:1001B00000C0429898EC9A95F1F78295807F8BB9B0
:1001C000429A82E48A95F1F700C0429898EC9A9599
:1001D000F1F70895982F907F9BB9409A4198429AE1
:1001E00090E19A95F1F700C0429891E29A95F1F763
:1001F00000008295807F8BB9429A80E18A95F1F761
:1002000000C0429891E29A95F1F70000089580EFBE
:100210008AB987E087B9429883EF91E00197F1F7B7
:1002200000C0000083E30E94CF0082E30E94CF0061
:1002300088E20E94CF008FE00E94CF0081EE94E020
:100240000197F1F700C0000081E00E94CF0081EE2D
:1002500094E00197F1F700C0000080E80E94CF0011
:1002600081EE94E00197F1F700C0000086E00E9463
:10027000CF0081EE94E00197F1F700C000000895EF
:100280008E3029F08F3059F08C3061F404C08EE04C
:100290000E94CF0008958CE00E94CF0008958FE067
:1002A0000E94CF000895CF93DF9300D0CDB7DEB783
:1002B00090E8998390EC9A83FE01E60FF11D81503E
:1002C0009081890F0E94CF0081E28A95F1F70000AA
:1002D0000F900F90DF91CF9108950F931F93CF93BD
:1002E000FC018081882359F08F01C0E00E94EA0060
:1002F000CF5FF801EC0FF11D80818111F7CFCF9115
:100300001F910F910895CF93DF9362E082E00E94E6
:10031000530181E4C0E00E94EA00CF5F2FE986E844
:1003200091E0215080409040E1F700C00000EC2FA8
:10033000F0E0E05FFE4F80818111EDCFC3E0D0E0BF
:1003400081E00E94CF0062E082E00E9453018FE4CE
:1003500093EC0197F1F700C0000080E191E00E946A
:100360006D018FE493EC0197F1F700C00000219735
:1003700039F7DF91CF9108950E9407010E94530041
:100380008CE00E9440018FE191E00E946D012FE717
:100390008AE196E0215080409040E1F700C00000E3
:1003A00081E00E94CF000E9483012FE986E891E05E
:1003B000215080409040E1F700C0000081E00E94A1
:1003C000CF000E9458000E94EA0087EA91E6019758
:0C03D000F1F700C00000F5CFF894FFCF5B
:1003DC003738392F3435362A3132332D2E303D2BE8
:1003EC0041686D656420456C2D546F726B790048C3
:1003FC00656C6C6F20303132333435363738390018
:00000001FF
